{
  "_format": "hh-sol-artifact-1",
  "contractName": "MoonGame",
  "sourceName": "contracts/MoonGame.sol",
  "abi": [
    {
      "inputs": [
        {
          "internalType": "address",
          "name": "_dexRouter",
          "type": "address"
        }
      ],
      "stateMutability": "nonpayable",
      "type": "constructor"
    },
    {
      "anonymous": false,
      "inputs": [
        {
          "indexed": true,
          "internalType": "address",
          "name": "owner",
          "type": "address"
        },
        {
          "indexed": true,
          "internalType": "address",
          "name": "spender",
          "type": "address"
        },
        {
          "indexed": false,
          "internalType": "uint256",
          "name": "value",
          "type": "uint256"
        }
      ],
      "name": "Approval",
      "type": "event"
    },
    {
      "anonymous": false,
      "inputs": [
        {
          "indexed": false,
          "internalType": "uint256",
          "name": "amountBNB",
          "type": "uint256"
        },
        {
          "indexed": false,
          "internalType": "uint256",
          "name": "amountBOG",
          "type": "uint256"
        }
      ],
      "name": "AutoLiquify",
      "type": "event"
    },
    {
      "anonymous": false,
      "inputs": [
        {
          "indexed": false,
          "internalType": "uint256",
          "name": "duration",
          "type": "uint256"
        }
      ],
      "name": "BuybackMultiplierActive",
      "type": "event"
    },
    {
      "anonymous": false,
      "inputs": [
        {
          "indexed": false,
          "internalType": "address",
          "name": "owner",
          "type": "address"
        }
      ],
      "name": "OwnershipTransferred",
      "type": "event"
    },
    {
      "anonymous": false,
      "inputs": [
        {
          "indexed": true,
          "internalType": "address",
          "name": "from",
          "type": "address"
        },
        {
          "indexed": true,
          "internalType": "address",
          "name": "to",
          "type": "address"
        },
        {
          "indexed": false,
          "internalType": "uint256",
          "name": "value",
          "type": "uint256"
        }
      ],
      "name": "Transfer",
      "type": "event"
    },
    {
      "inputs": [],
      "name": "MASK",
      "outputs": [
        {
          "internalType": "uint256",
          "name": "",
          "type": "uint256"
        }
      ],
      "stateMutability": "view",
      "type": "function"
    },
    {
      "inputs": [],
      "name": "WBNB",
      "outputs": [
        {
          "internalType": "address",
          "name": "",
          "type": "address"
        }
      ],
      "stateMutability": "view",
      "type": "function"
    },
    {
      "inputs": [],
      "name": "_maxTxAmount",
      "outputs": [
        {
          "internalType": "uint256",
          "name": "",
          "type": "uint256"
        }
      ],
      "stateMutability": "view",
      "type": "function"
    },
    {
      "inputs": [
        {
          "internalType": "address",
          "name": "holder",
          "type": "address"
        },
        {
          "internalType": "address",
          "name": "spender",
          "type": "address"
        }
      ],
      "name": "allowance",
      "outputs": [
        {
          "internalType": "uint256",
          "name": "",
          "type": "uint256"
        }
      ],
      "stateMutability": "view",
      "type": "function"
    },
    {
      "inputs": [
        {
          "internalType": "address",
          "name": "spender",
          "type": "address"
        },
        {
          "internalType": "uint256",
          "name": "amount",
          "type": "uint256"
        }
      ],
      "name": "approve",
      "outputs": [
        {
          "internalType": "bool",
          "name": "",
          "type": "bool"
        }
      ],
      "stateMutability": "nonpayable",
      "type": "function"
    },
    {
      "inputs": [
        {
          "internalType": "address",
          "name": "spender",
          "type": "address"
        }
      ],
      "name": "approveMax",
      "outputs": [
        {
          "internalType": "bool",
          "name": "",
          "type": "bool"
        }
      ],
      "stateMutability": "nonpayable",
      "type": "function"
    },
    {
      "inputs": [
        {
          "internalType": "address",
          "name": "adr",
          "type": "address"
        }
      ],
      "name": "authorize",
      "outputs": [],
      "stateMutability": "nonpayable",
      "type": "function"
    },
    {
      "inputs": [],
      "name": "autoBuybackEnabled",
      "outputs": [
        {
          "internalType": "bool",
          "name": "",
          "type": "bool"
        }
      ],
      "stateMutability": "view",
      "type": "function"
    },
    {
      "inputs": [],
      "name": "autoLiquidityReceiver",
      "outputs": [
        {
          "internalType": "address",
          "name": "",
          "type": "address"
        }
      ],
      "stateMutability": "view",
      "type": "function"
    },
    {
      "inputs": [
        {
          "internalType": "address",
          "name": "account",
          "type": "address"
        }
      ],
      "name": "balanceOf",
      "outputs": [
        {
          "internalType": "uint256",
          "name": "",
          "type": "uint256"
        }
      ],
      "stateMutability": "view",
      "type": "function"
    },
    {
      "inputs": [],
      "name": "clearBuybackMultiplier",
      "outputs": [],
      "stateMutability": "nonpayable",
      "type": "function"
    },
    {
      "inputs": [],
      "name": "decimals",
      "outputs": [
        {
          "internalType": "uint8",
          "name": "",
          "type": "uint8"
        }
      ],
      "stateMutability": "pure",
      "type": "function"
    },
    {
      "inputs": [],
      "name": "distributorAddress",
      "outputs": [
        {
          "internalType": "address",
          "name": "",
          "type": "address"
        }
      ],
      "stateMutability": "view",
      "type": "function"
    },
    {
      "inputs": [],
      "name": "getCirculatingSupply",
      "outputs": [
        {
          "internalType": "uint256",
          "name": "",
          "type": "uint256"
        }
      ],
      "stateMutability": "view",
      "type": "function"
    },
    {
      "inputs": [
        {
          "internalType": "uint256",
          "name": "accuracy",
          "type": "uint256"
        }
      ],
      "name": "getLiquidityBacking",
      "outputs": [
        {
          "internalType": "uint256",
          "name": "",
          "type": "uint256"
        }
      ],
      "stateMutability": "view",
      "type": "function"
    },
    {
      "inputs": [],
      "name": "getMultipliedFee",
      "outputs": [
        {
          "internalType": "uint256",
          "name": "",
          "type": "uint256"
        }
      ],
      "stateMutability": "nonpayable",
      "type": "function"
    },
    {
      "inputs": [],
      "name": "getOwner",
      "outputs": [
        {
          "internalType": "address",
          "name": "",
          "type": "address"
        }
      ],
      "stateMutability": "view",
      "type": "function"
    },
    {
      "inputs": [
        {
          "internalType": "bool",
          "name": "selling",
          "type": "bool"
        }
      ],
      "name": "getTotalFee",
      "outputs": [
        {
          "internalType": "uint256",
          "name": "",
          "type": "uint256"
        }
      ],
      "stateMutability": "nonpayable",
      "type": "function"
    },
    {
      "inputs": [
        {
          "internalType": "address",
          "name": "adr",
          "type": "address"
        }
      ],
      "name": "isAuthorized",
      "outputs": [
        {
          "internalType": "bool",
          "name": "",
          "type": "bool"
        }
      ],
      "stateMutability": "view",
      "type": "function"
    },
    {
      "inputs": [
        {
          "internalType": "uint256",
          "name": "target",
          "type": "uint256"
        },
        {
          "internalType": "uint256",
          "name": "accuracy",
          "type": "uint256"
        }
      ],
      "name": "isOverLiquified",
      "outputs": [
        {
          "internalType": "bool",
          "name": "",
          "type": "bool"
        }
      ],
      "stateMutability": "view",
      "type": "function"
    },
    {
      "inputs": [
        {
          "internalType": "address",
          "name": "account",
          "type": "address"
        }
      ],
      "name": "isOwner",
      "outputs": [
        {
          "internalType": "bool",
          "name": "",
          "type": "bool"
        }
      ],
      "stateMutability": "view",
      "type": "function"
    },
    {
      "inputs": [
        {
          "internalType": "uint256",
          "name": "timestamp",
          "type": "uint256"
        }
      ],
      "name": "launch",
      "outputs": [],
      "stateMutability": "nonpayable",
      "type": "function"
    },
    {
      "inputs": [],
      "name": "launchedAt",
      "outputs": [
        {
          "internalType": "uint256",
          "name": "",
          "type": "uint256"
        }
      ],
      "stateMutability": "view",
      "type": "function"
    },
    {
      "inputs": [],
      "name": "launchedAtTimestamp",
      "outputs": [
        {
          "internalType": "uint256",
          "name": "",
          "type": "uint256"
        }
      ],
      "stateMutability": "view",
      "type": "function"
    },
    {
      "inputs": [],
      "name": "marketingFeeReceiver",
      "outputs": [
        {
          "internalType": "address",
          "name": "",
          "type": "address"
        }
      ],
      "stateMutability": "view",
      "type": "function"
    },
    {
      "inputs": [],
      "name": "name",
      "outputs": [
        {
          "internalType": "string",
          "name": "",
          "type": "string"
        }
      ],
      "stateMutability": "pure",
      "type": "function"
    },
    {
      "inputs": [],
      "name": "pair",
      "outputs": [
        {
          "internalType": "address",
          "name": "",
          "type": "address"
        }
      ],
      "stateMutability": "view",
      "type": "function"
    },
    {
      "inputs": [],
      "name": "router",
      "outputs": [
        {
          "internalType": "contract IDEXRouter",
          "name": "",
          "type": "address"
        }
      ],
      "stateMutability": "view",
      "type": "function"
    },
    {
      "inputs": [
        {
          "internalType": "bool",
          "name": "_enabled",
          "type": "bool"
        },
        {
          "internalType": "uint256",
          "name": "_cap",
          "type": "uint256"
        },
        {
          "internalType": "uint256",
          "name": "_amount",
          "type": "uint256"
        },
        {
          "internalType": "uint256",
          "name": "_period",
          "type": "uint256"
        }
      ],
      "name": "setAutoBuybackSettings",
      "outputs": [],
      "stateMutability": "nonpayable",
      "type": "function"
    },
    {
      "inputs": [
        {
          "internalType": "uint256",
          "name": "numerator",
          "type": "uint256"
        },
        {
          "internalType": "uint256",
          "name": "denominator",
          "type": "uint256"
        },
        {
          "internalType": "uint256",
          "name": "length",
          "type": "uint256"
        }
      ],
      "name": "setBuybackMultiplierSettings",
      "outputs": [],
      "stateMutability": "nonpayable",
      "type": "function"
    },
    {
      "inputs": [
        {
          "internalType": "uint256",
          "name": "_minPeriod",
          "type": "uint256"
        },
        {
          "internalType": "uint256",
          "name": "_minDistribution",
          "type": "uint256"
        }
      ],
      "name": "setDistributionCriteria",
      "outputs": [],
      "stateMutability": "nonpayable",
      "type": "function"
    },
    {
      "inputs": [
        {
          "internalType": "uint256",
          "name": "gas",
          "type": "uint256"
        }
      ],
      "name": "setDistributorSettings",
      "outputs": [],
      "stateMutability": "nonpayable",
      "type": "function"
    },
    {
      "inputs": [
        {
          "internalType": "address",
          "name": "_autoLiquidityReceiver",
          "type": "address"
        },
        {
          "internalType": "address",
          "name": "_marketingFeeReceiver",
          "type": "address"
        }
      ],
      "name": "setFeeReceivers",
      "outputs": [],
      "stateMutability": "nonpayable",
      "type": "function"
    },
    {
      "inputs": [
        {
          "internalType": "uint256",
          "name": "_liquidityFee",
          "type": "uint256"
        },
        {
          "internalType": "uint256",
          "name": "_buybackFee",
          "type": "uint256"
        },
        {
          "internalType": "uint256",
          "name": "_reflectionFee",
          "type": "uint256"
        },
        {
          "internalType": "uint256",
          "name": "_marketingFee",
          "type": "uint256"
        },
        {
          "internalType": "uint256",
          "name": "_feeDenominator",
          "type": "uint256"
        }
      ],
      "name": "setFees",
      "outputs": [],
      "stateMutability": "nonpayable",
      "type": "function"
    },
    {
      "inputs": [
        {
          "internalType": "address",
          "name": "holder",
          "type": "address"
        },
        {
          "internalType": "bool",
          "name": "exempt",
          "type": "bool"
        }
      ],
      "name": "setIsDividendExempt",
      "outputs": [],
      "stateMutability": "nonpayable",
      "type": "function"
    },
    {
      "inputs": [
        {
          "internalType": "address",
          "name": "holder",
          "type": "address"
        },
        {
          "internalType": "bool",
          "name": "exempt",
          "type": "bool"
        }
      ],
      "name": "setIsFeeExempt",
      "outputs": [],
      "stateMutability": "nonpayable",
      "type": "function"
    },
    {
      "inputs": [
        {
          "internalType": "address",
          "name": "holder",
          "type": "address"
        },
        {
          "internalType": "bool",
          "name": "exempt",
          "type": "bool"
        }
      ],
      "name": "setIsTxLimitExempt",
      "outputs": [],
      "stateMutability": "nonpayable",
      "type": "function"
    },
    {
      "inputs": [
        {
          "internalType": "bool",
          "name": "_enabled",
          "type": "bool"
        },
        {
          "internalType": "uint256",
          "name": "_amount",
          "type": "uint256"
        }
      ],
      "name": "setSwapBackSettings",
      "outputs": [],
      "stateMutability": "nonpayable",
      "type": "function"
    },
    {
      "inputs": [
        {
          "internalType": "uint256",
          "name": "_target",
          "type": "uint256"
        },
        {
          "internalType": "uint256",
          "name": "_denominator",
          "type": "uint256"
        }
      ],
      "name": "setTargetLiquidity",
      "outputs": [],
      "stateMutability": "nonpayable",
      "type": "function"
    },
    {
      "inputs": [
        {
          "internalType": "uint256",
          "name": "amount",
          "type": "uint256"
        }
      ],
      "name": "setTxLimit",
      "outputs": [],
      "stateMutability": "nonpayable",
      "type": "function"
    },
    {
      "inputs": [
        {
          "internalType": "address",
          "name": "holder",
          "type": "address"
        },
        {
          "internalType": "bool",
          "name": "whitelist",
          "type": "bool"
        }
      ],
      "name": "setWhiteList",
      "outputs": [],
      "stateMutability": "nonpayable",
      "type": "function"
    },
    {
      "inputs": [],
      "name": "swapEnabled",
      "outputs": [
        {
          "internalType": "bool",
          "name": "",
          "type": "bool"
        }
      ],
      "stateMutability": "view",
      "type": "function"
    },
    {
      "inputs": [],
      "name": "swapThreshold",
      "outputs": [
        {
          "internalType": "uint256",
          "name": "",
          "type": "uint256"
        }
      ],
      "stateMutability": "view",
      "type": "function"
    },
    {
      "inputs": [],
      "name": "symbol",
      "outputs": [
        {
          "internalType": "string",
          "name": "",
          "type": "string"
        }
      ],
      "stateMutability": "pure",
      "type": "function"
    },
    {
      "inputs": [],
      "name": "totalSupply",
      "outputs": [
        {
          "internalType": "uint256",
          "name": "",
          "type": "uint256"
        }
      ],
      "stateMutability": "view",
      "type": "function"
    },
    {
      "inputs": [
        {
          "internalType": "address",
          "name": "recipient",
          "type": "address"
        },
        {
          "internalType": "uint256",
          "name": "amount",
          "type": "uint256"
        }
      ],
      "name": "transfer",
      "outputs": [
        {
          "internalType": "bool",
          "name": "",
          "type": "bool"
        }
      ],
      "stateMutability": "nonpayable",
      "type": "function"
    },
    {
      "inputs": [
        {
          "internalType": "address",
          "name": "sender",
          "type": "address"
        },
        {
          "internalType": "address",
          "name": "recipient",
          "type": "address"
        },
        {
          "internalType": "uint256",
          "name": "amount",
          "type": "uint256"
        }
      ],
      "name": "transferFrom",
      "outputs": [
        {
          "internalType": "bool",
          "name": "",
          "type": "bool"
        }
      ],
      "stateMutability": "nonpayable",
      "type": "function"
    },
    {
      "inputs": [
        {
          "internalType": "address payable",
          "name": "adr",
          "type": "address"
        }
      ],
      "name": "transferOwnership",
      "outputs": [],
      "stateMutability": "nonpayable",
      "type": "function"
    },
    {
      "inputs": [
        {
          "internalType": "uint256",
          "name": "amount",
          "type": "uint256"
        },
        {
          "internalType": "bool",
          "name": "triggerBuybackMultiplier",
          "type": "bool"
        }
      ],
      "name": "triggerZeusBuyback",
      "outputs": [],
      "stateMutability": "nonpayable",
      "type": "function"
    },
    {
      "inputs": [
        {
          "internalType": "address",
          "name": "adr",
          "type": "address"
        }
      ],
      "name": "unauthorize",
      "outputs": [],
      "stateMutability": "nonpayable",
      "type": "function"
    },
    {
      "inputs": [
        {
          "internalType": "address",
          "name": "to",
          "type": "address"
        },
        {
          "internalType": "uint256",
          "name": "amount",
          "type": "uint256"
        }
      ],
      "name": "withDrawBNB",
      "outputs": [],
      "stateMutability": "nonpayable",
      "type": "function"
    },
    {
      "stateMutability": "payable",
      "type": "receive"
    }
  ],
  "bytecode": "0x608060405273bb4cdb9cbd36b01bd1cbaebf2de08d9173bc095c600260006101000a81548173ffffffffffffffffffffffffffffffffffffffff021916908373ffffffffffffffffffffffffffffffffffffffff16021790555061dead600360006101000a81548173ffffffffffffffffffffffffffffffffffffffff021916908373ffffffffffffffffffffffffffffffffffffffff1602179055506000600460006101000a81548173ffffffffffffffffffffffffffffffffffffffff021916908373ffffffffffffffffffffffffffffffffffffffff16021790555061dead600560006101000a81548173ffffffffffffffffffffffffffffffffffffffff021916908373ffffffffffffffffffffffffffffffffffffffff1602179055506012600a62000131919062000da5565b633b9aca0062000142919062000df6565b6006556200016260c860065462000af160201b6200245d1790919060201c565b60075560c8600e55610190600f5561035260105560966011556106406012556127106013556019601655606460175560c8601c556064601d55610708601f556000602060006101000a81548160ff0219169083151502179055506207a1206029556001602a60006101000a81548160ff0219169083151502179055506103e8600654620001f0919062000e70565b602b553480156200020057600080fd5b5060405162006bcb38038062006bcb833981810160405281019062000226919062000f12565b33806000806101000a81548173ffffffffffffffffffffffffffffffffffffffff021916908373ffffffffffffffffffffffffffffffffffffffff16021790555060018060008373ffffffffffffffffffffffffffffffffffffffff1673ffffffffffffffffffffffffffffffffffffffff16815260200190815260200160002060006101000a81548160ff0219169083151502179055505080601860006101000a81548173ffffffffffffffffffffffffffffffffffffffff021916908373ffffffffffffffffffffffffffffffffffffffff160217905550601860009054906101000a900473ffffffffffffffffffffffffffffffffffffffff1673ffffffffffffffffffffffffffffffffffffffff1663ad5c46486040518163ffffffff1660e01b8152600401602060405180830381865afa1580156200036e573d6000803e3d6000fd5b505050506040513d601f19601f8201168201806040525081019062000394919062000f12565b600260006101000a81548173ffffffffffffffffffffffffffffffffffffffff021916908373ffffffffffffffffffffffffffffffffffffffff160217905550601860009054906101000a900473ffffffffffffffffffffffffffffffffffffffff1673ffffffffffffffffffffffffffffffffffffffff1663c45a01556040518163ffffffff1660e01b8152600401602060405180830381865afa15801562000442573d6000803e3d6000fd5b505050506040513d601f19601f8201168201806040525081019062000468919062000f12565b73ffffffffffffffffffffffffffffffffffffffff1663c9c65396600260009054906101000a900473ffffffffffffffffffffffffffffffffffffffff16306040518363ffffffff1660e01b8152600401620004c692919062000f55565b6020604051808303816000875af1158015620004e6573d6000803e3d6000fd5b505050506040513d601f19601f820116820180604052508101906200050c919062000f12565b601960006101000a81548173ffffffffffffffffffffffffffffffffffffffff021916908373ffffffffffffffffffffffffffffffffffffffff160217905550600654600960003073ffffffffffffffffffffffffffffffffffffffff1673ffffffffffffffffffffffffffffffffffffffff1681526020019081526020016000206000601860009054906101000a900473ffffffffffffffffffffffffffffffffffffffff1673ffffffffffffffffffffffffffffffffffffffff1673ffffffffffffffffffffffffffffffffffffffff16815260200190815260200160002081905550604051620005ff9062000bfd565b604051809103906000f0801580156200061c573d6000803e3d6000fd5b50602760006101000a81548173ffffffffffffffffffffffffffffffffffffffff021916908373ffffffffffffffffffffffffffffffffffffffff160217905550602760009054906101000a900473ffffffffffffffffffffffffffffffffffffffff16602860006101000a81548173ffffffffffffffffffffffffffffffffffffffff021916908373ffffffffffffffffffffffffffffffffffffffff1602179055506001600a60003373ffffffffffffffffffffffffffffffffffffffff1673ffffffffffffffffffffffffffffffffffffffff16815260200190815260200160002060006101000a81548160ff0219169083151502179055506001600b60003373ffffffffffffffffffffffffffffffffffffffff1673ffffffffffffffffffffffffffffffffffffffff16815260200190815260200160002060006101000a81548160ff0219169083151502179055506001600c60003373ffffffffffffffffffffffffffffffffffffffff1673ffffffffffffffffffffffffffffffffffffffff16815260200190815260200160002060006101000a81548160ff0219169083151502179055506001600d6000601960009054906101000a900473ffffffffffffffffffffffffffffffffffffffff1673ffffffffffffffffffffffffffffffffffffffff1673ffffffffffffffffffffffffffffffffffffffff16815260200190815260200160002060006101000a81548160ff0219169083151502179055506001600d60003073ffffffffffffffffffffffffffffffffffffffff1673ffffffffffffffffffffffffffffffffffffffff16815260200190815260200160002060006101000a81548160ff0219169083151502179055506001600d6000600360009054906101000a900473ffffffffffffffffffffffffffffffffffffffff1673ffffffffffffffffffffffffffffffffffffffff1673ffffffffffffffffffffffffffffffffffffffff16815260200190815260200160002060006101000a81548160ff0219169083151502179055506001602160003373ffffffffffffffffffffffffffffffffffffffff1673ffffffffffffffffffffffffffffffffffffffff16815260200190815260200160002060006101000a81548160ff02191690831515021790555033601460006101000a81548173ffffffffffffffffffffffffffffffffffffffff021916908373ffffffffffffffffffffffffffffffffffffffff16021790555033601560006101000a81548173ffffffffffffffffffffffffffffffffffffffff021916908373ffffffffffffffffffffffffffffffffffffffff16021790555062000a028160065462000b0960201b60201c565b5062000a39601960009054906101000a900473ffffffffffffffffffffffffffffffffffffffff1660065462000b0960201b60201c565b50600654600860003373ffffffffffffffffffffffffffffffffffffffff1673ffffffffffffffffffffffffffffffffffffffff168152602001908152602001600020819055503373ffffffffffffffffffffffffffffffffffffffff16600073ffffffffffffffffffffffffffffffffffffffff167fddf252ad1be2c89b69c2b068fc378daa952ba7f163c4a11628f55a4df523b3ef60065460405162000ae2919062000f93565b60405180910390a35062000fb0565b6000818362000b01919062000e70565b905092915050565b600081600960003373ffffffffffffffffffffffffffffffffffffffff1673ffffffffffffffffffffffffffffffffffffffff16815260200190815260200160002060008573ffffffffffffffffffffffffffffffffffffffff1673ffffffffffffffffffffffffffffffffffffffff168152602001908152602001600020819055508273ffffffffffffffffffffffffffffffffffffffff163373ffffffffffffffffffffffffffffffffffffffff167f8c5be1e5ebec7d5bd14f71427d1e84f3dd0314c0f7b2291e5b200ac8c7c3b9258460405162000beb919062000f93565b60405180910390a36001905092915050565b6114d480620056f783390190565b7f4e487b7100000000000000000000000000000000000000000000000000000000600052601160045260246000fd5b60008160011c9050919050565b6000808291508390505b600185111562000c995780860481111562000c715762000c7062000c0b565b5b600185161562000c815780820291505b808102905062000c918562000c3a565b945062000c51565b94509492505050565b60008262000cb4576001905062000d87565b8162000cc4576000905062000d87565b816001811462000cdd576002811462000ce85762000d1e565b600191505062000d87565b60ff84111562000cfd5762000cfc62000c0b565b5b8360020a91508482111562000d175762000d1662000c0b565b5b5062000d87565b5060208310610133831016604e8410600b841016171562000d585782820a90508381111562000d525762000d5162000c0b565b5b62000d87565b62000d67848484600162000c47565b9250905081840481111562000d815762000d8062000c0b565b5b81810290505b9392505050565b6000819050919050565b600060ff82169050919050565b600062000db28262000d8e565b915062000dbf8362000d98565b925062000dee7fffffffffffffffffffffffffffffffffffffffffffffffffffffffffffffffff848462000ca2565b905092915050565b600062000e038262000d8e565b915062000e108362000d8e565b925082820262000e208162000d8e565b9150828204841483151762000e3a5762000e3962000c0b565b5b5092915050565b7f4e487b7100000000000000000000000000000000000000000000000000000000600052601260045260246000fd5b600062000e7d8262000d8e565b915062000e8a8362000d8e565b92508262000e9d5762000e9c62000e41565b5b828204905092915050565b600080fd5b600073ffffffffffffffffffffffffffffffffffffffff82169050919050565b600062000eda8262000ead565b9050919050565b62000eec8162000ecd565b811462000ef857600080fd5b50565b60008151905062000f0c8162000ee1565b92915050565b60006020828403121562000f2b5762000f2a62000ea8565b5b600062000f3b8482850162000efb565b91505092915050565b62000f4f8162000ecd565b82525050565b600060408201905062000f6c600083018562000f44565b62000f7b602083018462000f44565b9392505050565b62000f8d8162000d8e565b82525050565b600060208201905062000faa600083018462000f82565b92915050565b6147378062000fc06000396000f3fe6080604052600436106102e85760003560e01c80638dd9500211610190578063d806d12f116100dc578063f1f3bca311610095578063f708a64f1161006f578063f708a64f14610b57578063f84ba65d14610b80578063f887ea4014610ba9578063fe9fbb8014610bd4576102ef565b8063f1f3bca314610ac8578063f2fde38b14610b05578063f5cfec0a14610b2e576102ef565b8063d806d12f146109b8578063dd62ed3e146109e3578063df20fd4914610a20578063e91f214e14610a49578063e96fada214610a74578063f0b37c0414610a9f576102ef565b8063a9059cbb11610149578063bf56b37111610123578063bf56b371146108fa578063c6d2577d14610925578063ca33e64c14610950578063d51ed1c81461097b576102ef565b8063a9059cbb1461087d578063b210b06d146108ba578063b6a5d7de146108d1576102ef565b80638dd950021461077f57806395d89b41146107aa5780639d1944f5146107d5578063a4b45c00146107fe578063a51af4c514610827578063a8aa1b3114610852576102ef565b80632f54bf6e1161024f578063658d4b7f116102085780637d1db4a5116101e25780637d1db4a5146106d757806385b12c7c14610702578063893d20e81461072b5780638d14e12714610756576102ef565b8063658d4b7f146106465780636ddd17131461066f57806370a082311461069a576102ef565b80632f54bf6e14610524578063313ce567146105615780633bb8a8d41461058c5780634bd2240c146105b7578063571ac8b0146105e05780635c85974f1461061d576102ef565b806318160ddd116102a157806318160ddd14610416578063201e7991146104415780632375ce401461046a57806323b872dd146104935780632b112e49146104d05780632d48e896146104fb576102ef565b80630445b667146102f4578063048c7baf1461031f57806304a66b481461034857806306fdde0314610371578063095ea7b31461039c5780631161ae39146103d9576102ef565b366102ef57005b600080fd5b34801561030057600080fd5b50610309610c11565b604051610316919061387e565b60405180910390f35b34801561032b57600080fd5b5061034660048036038101906103419190613902565b610c17565b005b34801561035457600080fd5b5061036f600480360381019061036a9190613969565b610ca3565b005b34801561037d57600080fd5b50610386610d6e565b6040516103939190613a74565b60405180910390f35b3480156103a857600080fd5b506103c360048036038101906103be9190613af4565b610dab565b6040516103d09190613b43565b60405180910390f35b3480156103e557600080fd5b5061040060048036038101906103fb9190613b5e565b610e9d565b60405161040d9190613b43565b60405180910390f35b34801561042257600080fd5b5061042b610eb2565b604051610438919061387e565b60405180910390f35b34801561044d57600080fd5b5061046860048036038101906104639190613b5e565b610ebc565b005b34801561047657600080fd5b50610491600480360381019061048c9190613b9e565b610f16565b005b34801561049f57600080fd5b506104ba60048036038101906104b59190613bf1565b610f9c565b6040516104c79190613b43565b60405180910390f35b3480156104dc57600080fd5b506104e561117e565b6040516104f2919061387e565b60405180910390f35b34801561050757600080fd5b50610522600480360381019061051d9190613b5e565b611200565b005b34801561053057600080fd5b5061054b60048036038101906105469190613c44565b6112db565b6040516105589190613b43565b60405180910390f35b34801561056d57600080fd5b50610576611334565b6040516105839190613c8d565b60405180910390f35b34801561059857600080fd5b506105a161133d565b6040516105ae9190613b43565b60405180910390f35b3480156105c357600080fd5b506105de60048036038101906105d99190613af4565b611350565b005b3480156105ec57600080fd5b5061060760048036038101906106029190613c44565b61148c565b6040516106149190613b43565b60405180910390f35b34801561062957600080fd5b50610644600480360381019061063f9190613ca8565b6114a1565b005b34801561065257600080fd5b5061066d60048036038101906106689190613cd5565b61150f565b005b34801561067b57600080fd5b506106846115b2565b6040516106919190613b43565b60405180910390f35b3480156106a657600080fd5b506106c160048036038101906106bc9190613c44565b6115c5565b6040516106ce919061387e565b60405180910390f35b3480156106e357600080fd5b506106ec61160e565b6040516106f9919061387e565b60405180910390f35b34801561070e57600080fd5b5061072960048036038101906107249190613ca8565b611614565b005b34801561073757600080fd5b506107406116b2565b60405161074d9190613d24565b60405180910390f35b34801561076257600080fd5b5061077d60048036038101906107789190613cd5565b6116db565b005b34801561078b57600080fd5b506107946117ed565b6040516107a19190613d24565b60405180910390f35b3480156107b657600080fd5b506107bf611813565b6040516107cc9190613a74565b60405180910390f35b3480156107e157600080fd5b506107fc60048036038101906107f79190613ca8565b611850565b005b34801561080a57600080fd5b5061082560048036038101906108209190613d3f565b6118b1565b005b34801561083357600080fd5b5061083c61197f565b6040516108499190613d24565b60405180910390f35b34801561085e57600080fd5b506108676119a5565b6040516108749190613d24565b60405180910390f35b34801561088957600080fd5b506108a4600480360381019061089f9190613af4565b6119cb565b6040516108b19190613b43565b60405180910390f35b3480156108c657600080fd5b506108cf6119e0565b005b3480156108dd57600080fd5b506108f860048036038101906108f39190613c44565b611a32565b005b34801561090657600080fd5b5061090f611ad4565b60405161091c919061387e565b60405180910390f35b34801561093157600080fd5b5061093a611ada565b604051610947919061387e565b60405180910390f35b34801561095c57600080fd5b50610965611ae0565b6040516109729190613d24565b60405180910390f35b34801561098757600080fd5b506109a2600480360381019061099d9190613ca8565b611b06565b6040516109af919061387e565b60405180910390f35b3480156109c457600080fd5b506109cd611b78565b6040516109da919061387e565b60405180910390f35b3480156109ef57600080fd5b50610a0a6004803603810190610a059190613d3f565b611c9f565b604051610a17919061387e565b60405180910390f35b348015610a2c57600080fd5b50610a476004803603810190610a429190613d7f565b611d26565b005b348015610a5557600080fd5b50610a5e611d93565b604051610a6b919061387e565b60405180910390f35b348015610a8057600080fd5b50610a89611da9565b604051610a969190613d24565b60405180910390f35b348015610aab57600080fd5b50610ac66004803603810190610ac19190613c44565b611dcf565b005b348015610ad457600080fd5b50610aef6004803603810190610aea9190613dbf565b611e72565b604051610afc919061387e565b60405180910390f35b348015610b1157600080fd5b50610b2c6004803603810190610b279190613e2a565b611ec6565b005b348015610b3a57600080fd5b50610b556004803603810190610b509190613e57565b611fdf565b005b348015610b6357600080fd5b50610b7e6004803603810190610b799190613cd5565b61209e565b005b348015610b8c57600080fd5b50610ba76004803603810190610ba29190613cd5565b61233e565b005b348015610bb557600080fd5b50610bbe6123e1565b604051610bcb9190613ef6565b60405180910390f35b348015610be057600080fd5b50610bfb6004803603810190610bf69190613c44565b612407565b604051610c089190613b43565b60405180910390f35b602b5481565b610c2033612407565b610c5f576040517f08c379a0000000000000000000000000000000000000000000000000000000008152600401610c5690613f5d565b60405180910390fd5b83602060006101000a81548160ff02191690831515021790555082602281905550600060238190555081602481905550806025819055504360268190555050505050565b610cac33612407565b610ceb576040517f08c379a0000000000000000000000000000000000000000000000000000000008152600401610ce290613f5d565b60405180910390fd5b84600e8190555083600f819055508260108190555081601181905550610d3e82610d3085610d22888a61247390919063ffffffff16565b61247390919063ffffffff16565b61247390919063ffffffff16565b601281905550806013819055506004601354610d5a9190613fdb565b60125410610d6757600080fd5b5050505050565b60606040518060400160405280600881526020017f4d4f4f4e47414d45000000000000000000000000000000000000000000000000815250905090565b600081600960003373ffffffffffffffffffffffffffffffffffffffff1673ffffffffffffffffffffffffffffffffffffffff16815260200190815260200160002060008573ffffffffffffffffffffffffffffffffffffffff1673ffffffffffffffffffffffffffffffffffffffff168152602001908152602001600020819055508273ffffffffffffffffffffffffffffffffffffffff163373ffffffffffffffffffffffffffffffffffffffff167f8c5be1e5ebec7d5bd14f71427d1e84f3dd0314c0f7b2291e5b200ac8c7c3b92584604051610e8b919061387e565b60405180910390a36001905092915050565b600082610ea983611b06565b11905092915050565b6000600654905090565b610ec533612407565b610f04576040517f08c379a0000000000000000000000000000000000000000000000000000000008152600401610efb90613f5d565b60405180910390fd5b81601681905550806017819055505050565b610f1f33612407565b610f5e576040517f08c379a0000000000000000000000000000000000000000000000000000000008152600401610f5590613f5d565b60405180910390fd5b60028284610f6c9190613fdb565b11158015610f7957508183115b610f8257600080fd5b82601c8190555081601d8190555080601f81905550505050565b6000600654600960008673ffffffffffffffffffffffffffffffffffffffff1673ffffffffffffffffffffffffffffffffffffffff16815260200190815260200160002060003373ffffffffffffffffffffffffffffffffffffffff1673ffffffffffffffffffffffffffffffffffffffff168152602001908152602001600020541461116a576110e9826040518060400160405280601681526020017f496e73756666696369656e7420416c6c6f77616e636500000000000000000000815250600960008873ffffffffffffffffffffffffffffffffffffffff1673ffffffffffffffffffffffffffffffffffffffff16815260200190815260200160002060003373ffffffffffffffffffffffffffffffffffffffff1673ffffffffffffffffffffffffffffffffffffffff168152602001908152602001600020546124899092919063ffffffff16565b600960008673ffffffffffffffffffffffffffffffffffffffff1673ffffffffffffffffffffffffffffffffffffffff16815260200190815260200160002060003373ffffffffffffffffffffffffffffffffffffffff1673ffffffffffffffffffffffffffffffffffffffff168152602001908152602001600020819055505b6111758484846124de565b90509392505050565b60006111fb6111ae600460009054906101000a900473ffffffffffffffffffffffffffffffffffffffff166115c5565b6111ed6111dc600360009054906101000a900473ffffffffffffffffffffffffffffffffffffffff166115c5565b6006546129f190919063ffffffff16565b6129f190919063ffffffff16565b905090565b61120933612407565b611248576040517f08c379a000000000000000000000000000000000000000000000000000000000815260040161123f90613f5d565b60405180910390fd5b602760009054906101000a900473ffffffffffffffffffffffffffffffffffffffff1673ffffffffffffffffffffffffffffffffffffffff16632d48e89683836040518363ffffffff1660e01b81526004016112a592919061400c565b600060405180830381600087803b1580156112bf57600080fd5b505af11580156112d3573d6000803e3d6000fd5b505050505050565b60008060009054906101000a900473ffffffffffffffffffffffffffffffffffffffff1673ffffffffffffffffffffffffffffffffffffffff168273ffffffffffffffffffffffffffffffffffffffff16149050919050565b60006012905090565b602060009054906101000a900460ff1681565b611359336112db565b611398576040517f08c379a000000000000000000000000000000000000000000000000000000000815260040161138f90614081565b60405180910390fd5b804710156113db576040517f08c379a00000000000000000000000000000000000000000000000000000000081526004016113d2906140ed565b60405180910390fd5b60008273ffffffffffffffffffffffffffffffffffffffff16826040516114019061413e565b60006040518083038185875af1925050503d806000811461143e576040519150601f19603f3d011682016040523d82523d6000602084013e611443565b606091505b5050905080611487576040517f08c379a000000000000000000000000000000000000000000000000000000000815260040161147e9061419f565b60405180910390fd5b505050565b600061149a82600654610dab565b9050919050565b6114aa33612407565b6114e9576040517f08c379a00000000000000000000000000000000000000000000000000000000081526004016114e090613f5d565b60405180910390fd5b6109c46006546114f99190613fdb565b81101561150557600080fd5b8060078190555050565b61151833612407565b611557576040517f08c379a000000000000000000000000000000000000000000000000000000000815260040161154e90613f5d565b60405180910390fd5b80600a60008473ffffffffffffffffffffffffffffffffffffffff1673ffffffffffffffffffffffffffffffffffffffff16815260200190815260200160002060006101000a81548160ff0219169083151502179055505050565b602a60009054906101000a900460ff1681565b6000600860008373ffffffffffffffffffffffffffffffffffffffff1673ffffffffffffffffffffffffffffffffffffffff168152602001908152602001600020549050919050565b60075481565b61161d33612407565b61165c576040517f08c379a000000000000000000000000000000000000000000000000000000000815260040161165390613f5d565b60405180910390fd5b6000601a54146116a1576040517f08c379a00000000000000000000000000000000000000000000000000000000081526004016116989061420b565b60405180910390fd5b43601a8190555042601b8190555050565b60008060009054906101000a900473ffffffffffffffffffffffffffffffffffffffff16905090565b6116e4336112db565b611723576040517f08c379a000000000000000000000000000000000000000000000000000000000815260040161171a90614081565b60405180910390fd5b600073ffffffffffffffffffffffffffffffffffffffff168273ffffffffffffffffffffffffffffffffffffffff1603611792576040517f08c379a000000000000000000000000000000000000000000000000000000000815260040161178990614277565b60405180910390fd5b80600b60008473ffffffffffffffffffffffffffffffffffffffff1673ffffffffffffffffffffffffffffffffffffffff16815260200190815260200160002060006101000a81548160ff0219169083151502179055505050565b600260009054906101000a900473ffffffffffffffffffffffffffffffffffffffff1681565b60606040518060400160405280600381526020017f4d47540000000000000000000000000000000000000000000000000000000000815250905090565b61185933612407565b611898576040517f08c379a000000000000000000000000000000000000000000000000000000000815260040161188f90613f5d565b60405180910390fd5b620b71b081106118a757600080fd5b8060298190555050565b6118ba33612407565b6118f9576040517f08c379a00000000000000000000000000000000000000000000000000000000081526004016118f090613f5d565b60405180910390fd5b81601460006101000a81548173ffffffffffffffffffffffffffffffffffffffff021916908373ffffffffffffffffffffffffffffffffffffffff16021790555080601560006101000a81548173ffffffffffffffffffffffffffffffffffffffff021916908373ffffffffffffffffffffffffffffffffffffffff1602179055505050565b602860009054906101000a900473ffffffffffffffffffffffffffffffffffffffff1681565b601960009054906101000a900473ffffffffffffffffffffffffffffffffffffffff1681565b60006119d83384846124de565b905092915050565b6119e933612407565b611a28576040517f08c379a0000000000000000000000000000000000000000000000000000000008152600401611a1f90613f5d565b60405180910390fd5b6000601e81905550565b611a3b336112db565b611a7a576040517f08c379a0000000000000000000000000000000000000000000000000000000008152600401611a7190614081565b60405180910390fd5b60018060008373ffffffffffffffffffffffffffffffffffffffff1673ffffffffffffffffffffffffffffffffffffffff16815260200190815260200160002060006101000a81548160ff02191690831515021790555050565b601a5481565b601b5481565b601460009054906101000a900473ffffffffffffffffffffffffffffffffffffffff1681565b6000611b71611b1361117e565b611b63611b546002611b46601960009054906101000a900473ffffffffffffffffffffffffffffffffffffffff166115c5565b612a0790919063ffffffff16565b85612a0790919063ffffffff16565b61245d90919063ffffffff16565b9050919050565b60004262015180601b54611b8c9190614297565b1115611bc457611bbd601354611baf614650601254612a0790919063ffffffff16565b61245d90919063ffffffff16565b9050611c9c565b42611bdc601f54601e5461247390919063ffffffff16565b1115611c96576000611c0d42611bff601f54601e5461247390919063ffffffff16565b6129f190919063ffffffff16565b90506000611c50601254611c42601d54611c34601c54601254612a0790919063ffffffff16565b61245d90919063ffffffff16565b6129f190919063ffffffff16565b9050611c8d611c7c601f54611c6e8585612a0790919063ffffffff16565b61245d90919063ffffffff16565b60125461247390919063ffffffff16565b92505050611c9c565b60125490505b90565b6000600960008473ffffffffffffffffffffffffffffffffffffffff1673ffffffffffffffffffffffffffffffffffffffff16815260200190815260200160002060008373ffffffffffffffffffffffffffffffffffffffff1673ffffffffffffffffffffffffffffffffffffffff16815260200190815260200160002054905092915050565b611d2f33612407565b611d6e576040517f08c379a0000000000000000000000000000000000000000000000000000000008152600401611d6590613f5d565b60405180910390fd5b81602a60006101000a81548160ff02191690831515021790555080602b819055505050565b6fffffffffffffffffffffffffffffffff801681565b601560009054906101000a900473ffffffffffffffffffffffffffffffffffffffff1681565b611dd8336112db565b611e17576040517f08c379a0000000000000000000000000000000000000000000000000000000008152600401611e0e90614081565b60405180910390fd5b6000600160008373ffffffffffffffffffffffffffffffffffffffff1673ffffffffffffffffffffffffffffffffffffffff16815260200190815260200160002060006101000a81548160ff02191690831515021790555050565b6000436001601a54611e849190614297565b10611ea657611e9f60016013546129f190919063ffffffff16565b9050611ec1565b8115611ebb57611eb4611b78565b9050611ec1565b60125490505b919050565b611ecf336112db565b611f0e576040517f08c379a0000000000000000000000000000000000000000000000000000000008152600401611f0590614081565b60405180910390fd5b806000806101000a81548173ffffffffffffffffffffffffffffffffffffffff021916908373ffffffffffffffffffffffffffffffffffffffff16021790555060018060008373ffffffffffffffffffffffffffffffffffffffff1673ffffffffffffffffffffffffffffffffffffffff16815260200190815260200160002060006101000a81548160ff0219169083151502179055507f04dba622d284ed0014ee4b9a6a68386be1a4c08a4913ae272de89199cc68616381604051611fd491906142ec565b60405180910390a150565b611fe833612407565b612027576040517f08c379a000000000000000000000000000000000000000000000000000000000815260040161201e90613f5d565b60405180910390fd5b61205382600360009054906101000a900473ffffffffffffffffffffffffffffffffffffffff16612a1d565b801561209a5742601e819055507f39d2389ec5c1fa77b2c0d374bc61b6d7bd97ccba280fcdeb4e9c7644898d7c3a601f54604051612091919061387e565b60405180910390a15b5050565b6120a733612407565b6120e6576040517f08c379a00000000000000000000000000000000000000000000000000000000081526004016120dd90613f5d565b60405180910390fd5b3073ffffffffffffffffffffffffffffffffffffffff168273ffffffffffffffffffffffffffffffffffffffff16141580156121705750601960009054906101000a900473ffffffffffffffffffffffffffffffffffffffff1673ffffffffffffffffffffffffffffffffffffffff168273ffffffffffffffffffffffffffffffffffffffff1614155b61217957600080fd5b80600d60008473ffffffffffffffffffffffffffffffffffffffff1673ffffffffffffffffffffffffffffffffffffffff16815260200190815260200160002060006101000a81548160ff021916908315150217905550801561226b57602760009054906101000a900473ffffffffffffffffffffffffffffffffffffffff1673ffffffffffffffffffffffffffffffffffffffff166314b6ca968360006040518363ffffffff1660e01b8152600401612234929190614342565b600060405180830381600087803b15801561224e57600080fd5b505af1158015612262573d6000803e3d6000fd5b5050505061233a565b602760009054906101000a900473ffffffffffffffffffffffffffffffffffffffff1673ffffffffffffffffffffffffffffffffffffffff166314b6ca9683600860008673ffffffffffffffffffffffffffffffffffffffff1673ffffffffffffffffffffffffffffffffffffffff168152602001908152602001600020546040518363ffffffff1660e01b815260040161230792919061436b565b600060405180830381600087803b15801561232157600080fd5b505af1158015612335573d6000803e3d6000fd5b505050505b5050565b61234733612407565b612386576040517f08c379a000000000000000000000000000000000000000000000000000000000815260040161237d90613f5d565b60405180910390fd5b80600c60008473ffffffffffffffffffffffffffffffffffffffff1673ffffffffffffffffffffffffffffffffffffffff16815260200190815260200160002060006101000a81548160ff0219169083151502179055505050565b601860009054906101000a900473ffffffffffffffffffffffffffffffffffffffff1681565b6000600160008373ffffffffffffffffffffffffffffffffffffffff1673ffffffffffffffffffffffffffffffffffffffff16815260200190815260200160002060009054906101000a900460ff169050919050565b6000818361246b9190613fdb565b905092915050565b600081836124819190614297565b905092915050565b60008383111582906124d1576040517f08c379a00000000000000000000000000000000000000000000000000000000081526004016124c89190613a74565b60405180910390fd5b5082840390509392505050565b6000602c60009054906101000a900460ff161561250757612500848484612bfb565b90506129ea565b6125118483612dce565b612519612e6b565b1561252757612526612f42565b5b61252f61349b565b1561253d5761253c61354e565b5b6125c6826040518060400160405280601481526020017f496e73756666696369656e742042616c616e6365000000000000000000000000815250600860008873ffffffffffffffffffffffffffffffffffffffff1673ffffffffffffffffffffffffffffffffffffffff168152602001908152602001600020546124899092919063ffffffff16565b600860008673ffffffffffffffffffffffffffffffffffffffff1673ffffffffffffffffffffffffffffffffffffffff16815260200190815260200160002081905550600061261585856135ca565b61261f578261262b565b61262a8585856136ca565b5b905061267f81600860008773ffffffffffffffffffffffffffffffffffffffff1673ffffffffffffffffffffffffffffffffffffffff1681526020019081526020016000205461247390919063ffffffff16565b600860008673ffffffffffffffffffffffffffffffffffffffff1673ffffffffffffffffffffffffffffffffffffffff16815260200190815260200160002081905550600d60008673ffffffffffffffffffffffffffffffffffffffff1673ffffffffffffffffffffffffffffffffffffffff16815260200190815260200160002060009054906101000a900460ff166127dc57602760009054906101000a900473ffffffffffffffffffffffffffffffffffffffff1673ffffffffffffffffffffffffffffffffffffffff166314b6ca9686600860008973ffffffffffffffffffffffffffffffffffffffff1673ffffffffffffffffffffffffffffffffffffffff168152602001908152602001600020546040518363ffffffff1660e01b81526004016127af92919061436b565b600060405180830381600087803b1580156127c957600080fd5b505af19250505080156127da575060015b505b600d60008573ffffffffffffffffffffffffffffffffffffffff1673ffffffffffffffffffffffffffffffffffffffff16815260200190815260200160002060009054906101000a900460ff166128f657602760009054906101000a900473ffffffffffffffffffffffffffffffffffffffff1673ffffffffffffffffffffffffffffffffffffffff166314b6ca9685600860008873ffffffffffffffffffffffffffffffffffffffff1673ffffffffffffffffffffffffffffffffffffffff168152602001908152602001600020546040518363ffffffff1660e01b81526004016128c992919061436b565b600060405180830381600087803b1580156128e357600080fd5b505af19250505080156128f4575060015b505b602760009054906101000a900473ffffffffffffffffffffffffffffffffffffffff1673ffffffffffffffffffffffffffffffffffffffff1663ffb2c4796029546040518263ffffffff1660e01b8152600401612953919061387e565b600060405180830381600087803b15801561296d57600080fd5b505af192505050801561297e575060015b508373ffffffffffffffffffffffffffffffffffffffff168573ffffffffffffffffffffffffffffffffffffffff167fddf252ad1be2c89b69c2b068fc378daa952ba7f163c4a11628f55a4df523b3ef836040516129dc919061387e565b60405180910390a360019150505b9392505050565b600081836129ff9190614394565b905092915050565b60008183612a1591906143c8565b905092915050565b6001602c60006101000a81548160ff0219169083151502179055506000600267ffffffffffffffff811115612a5557612a5461440a565b5b604051908082528060200260200182016040528015612a835781602001602082028036833780820191505090505b509050600260009054906101000a900473ffffffffffffffffffffffffffffffffffffffff1681600081518110612abd57612abc614439565b5b602002602001019073ffffffffffffffffffffffffffffffffffffffff16908173ffffffffffffffffffffffffffffffffffffffff16815250503081600181518110612b0c57612b0b614439565b5b602002602001019073ffffffffffffffffffffffffffffffffffffffff16908173ffffffffffffffffffffffffffffffffffffffff1681525050601860009054906101000a900473ffffffffffffffffffffffffffffffffffffffff1673ffffffffffffffffffffffffffffffffffffffff1663b6f9de958460008486426040518663ffffffff1660e01b8152600401612ba99493929190614526565b6000604051808303818588803b158015612bc257600080fd5b505af1158015612bd6573d6000803e3d6000fd5b5050505050506000602c60006101000a81548160ff0219169083151502179055505050565b6000612c86826040518060400160405280601481526020017f496e73756666696369656e742042616c616e6365000000000000000000000000815250600860008873ffffffffffffffffffffffffffffffffffffffff1673ffffffffffffffffffffffffffffffffffffffff168152602001908152602001600020546124899092919063ffffffff16565b600860008673ffffffffffffffffffffffffffffffffffffffff1673ffffffffffffffffffffffffffffffffffffffff16815260200190815260200160002081905550612d1b82600860008673ffffffffffffffffffffffffffffffffffffffff1673ffffffffffffffffffffffffffffffffffffffff1681526020019081526020016000205461247390919063ffffffff16565b600860008573ffffffffffffffffffffffffffffffffffffffff1673ffffffffffffffffffffffffffffffffffffffff168152602001908152602001600020819055508273ffffffffffffffffffffffffffffffffffffffff168473ffffffffffffffffffffffffffffffffffffffff167fddf252ad1be2c89b69c2b068fc378daa952ba7f163c4a11628f55a4df523b3ef84604051612dbb919061387e565b60405180910390a3600190509392505050565b60075481111580612e285750600c60008373ffffffffffffffffffffffffffffffffffffffff1673ffffffffffffffffffffffffffffffffffffffff16815260200190815260200160002060009054906101000a900460ff165b612e67576040517f08c379a0000000000000000000000000000000000000000000000000000000008152600401612e5e906145be565b60405180910390fd5b5050565b6000601960009054906101000a900473ffffffffffffffffffffffffffffffffffffffff1673ffffffffffffffffffffffffffffffffffffffff163373ffffffffffffffffffffffffffffffffffffffff1614158015612ed85750602c60009054906101000a900460ff16155b8015612ef05750602a60009054906101000a900460ff165b8015612f3d5750602b54600860003073ffffffffffffffffffffffffffffffffffffffff1673ffffffffffffffffffffffffffffffffffffffff1681526020019081526020016000205410155b905090565b6001602c60006101000a81548160ff0219169083151502179055506000612f6d601654601754610e9d565b612f7957600e54612f7c565b60005b90506000612fbc6002612fae601254612fa086602b54612a0790919063ffffffff16565b61245d90919063ffffffff16565b61245d90919063ffffffff16565b90506000612fd582602b546129f190919063ffffffff16565b90506000600267ffffffffffffffff811115612ff457612ff361440a565b5b6040519080825280602002602001820160405280156130225781602001602082028036833780820191505090505b509050308160008151811061303a57613039614439565b5b602002602001019073ffffffffffffffffffffffffffffffffffffffff16908173ffffffffffffffffffffffffffffffffffffffff1681525050600260009054906101000a900473ffffffffffffffffffffffffffffffffffffffff16816001815181106130ab576130aa614439565b5b602002602001019073ffffffffffffffffffffffffffffffffffffffff16908173ffffffffffffffffffffffffffffffffffffffff16815250506000479050601860009054906101000a900473ffffffffffffffffffffffffffffffffffffffff1673ffffffffffffffffffffffffffffffffffffffff1663791ac9478460008530426040518663ffffffff1660e01b815260040161314e9594939291906145de565b600060405180830381600087803b15801561316857600080fd5b505af115801561317c573d6000803e3d6000fd5b50505050600061319582476129f190919063ffffffff16565b905060006131c16131b060028961245d90919063ffffffff16565b6012546129f190919063ffffffff16565b905060006131fd60026131ef846131e18c88612a0790919063ffffffff16565b61245d90919063ffffffff16565b61245d90919063ffffffff16565b905060006132288361321a60105487612a0790919063ffffffff16565b61245d90919063ffffffff16565b905060006132538461324560115488612a0790919063ffffffff16565b61245d90919063ffffffff16565b9050602760009054906101000a900473ffffffffffffffffffffffffffffffffffffffff1673ffffffffffffffffffffffffffffffffffffffff1663d0e30db0836040518263ffffffff1660e01b81526004016000604051808303818588803b1580156132bf57600080fd5b505af1935050505080156132d1575060015b50601560009054906101000a900473ffffffffffffffffffffffffffffffffffffffff1673ffffffffffffffffffffffffffffffffffffffff16816175309060405161331c9061413e565b600060405180830381858888f193505050503d806000811461335a576040519150601f19603f3d011682016040523d82523d6000602084013e61335f565b606091505b505050600089111561347457601860009054906101000a900473ffffffffffffffffffffffffffffffffffffffff1673ffffffffffffffffffffffffffffffffffffffff1663f305d71984308c600080601460009054906101000a900473ffffffffffffffffffffffffffffffffffffffff16426040518863ffffffff1660e01b81526004016133f496959493929190614638565b60606040518083038185885af1158015613412573d6000803e3d6000fd5b50505050506040513d601f19601f8201168201806040525081019061343791906146ae565b5050507f424db2872186fa7e7afa7a5e902ed3b49a2ef19c2f5431e672462495dd6b4506838a60405161346b92919061400c565b60405180910390a15b505050505050505050506000602c60006101000a81548160ff021916908315150217905550565b6000601960009054906101000a900473ffffffffffffffffffffffffffffffffffffffff1673ffffffffffffffffffffffffffffffffffffffff163373ffffffffffffffffffffffffffffffffffffffff16141580156135085750602c60009054906101000a900460ff16155b80156135205750602060009054906101000a900460ff165b801561353b5750436025546026546135389190614297565b11155b801561354957506024544710155b905090565b61357c602454600360009054906101000a900473ffffffffffffffffffffffffffffffffffffffff16612a1d565b4360268190555061359a60245460235461247390919063ffffffff16565b60238190555060225460235411156135c8576000602060006101000a81548160ff0219169083151502179055505b565b6000600a60008473ffffffffffffffffffffffffffffffffffffffff1673ffffffffffffffffffffffffffffffffffffffff16815260200190815260200160002060009054906101000a900460ff168061366d5750600b60008473ffffffffffffffffffffffffffffffffffffffff1673ffffffffffffffffffffffffffffffffffffffff16815260200190815260200160002060009054906101000a900460ff165b806136c15750600b60008373ffffffffffffffffffffffffffffffffffffffff1673ffffffffffffffffffffffffffffffffffffffff16815260200190815260200160002060009054906101000a900460ff165b15905092915050565b60008061374c60135461373e61372f601960009054906101000a900473ffffffffffffffffffffffffffffffffffffffff1673ffffffffffffffffffffffffffffffffffffffff168873ffffffffffffffffffffffffffffffffffffffff1614611e72565b86612a0790919063ffffffff16565b61245d90919063ffffffff16565b90506137a081600860003073ffffffffffffffffffffffffffffffffffffffff1673ffffffffffffffffffffffffffffffffffffffff1681526020019081526020016000205461247390919063ffffffff16565b600860003073ffffffffffffffffffffffffffffffffffffffff1673ffffffffffffffffffffffffffffffffffffffff168152602001908152602001600020819055503073ffffffffffffffffffffffffffffffffffffffff168573ffffffffffffffffffffffffffffffffffffffff167fddf252ad1be2c89b69c2b068fc378daa952ba7f163c4a11628f55a4df523b3ef83604051613840919061387e565b60405180910390a361385b81846129f190919063ffffffff16565b9150509392505050565b6000819050919050565b61387881613865565b82525050565b6000602082019050613893600083018461386f565b92915050565b600080fd5b60008115159050919050565b6138b38161389e565b81146138be57600080fd5b50565b6000813590506138d0816138aa565b92915050565b6138df81613865565b81146138ea57600080fd5b50565b6000813590506138fc816138d6565b92915050565b6000806000806080858703121561391c5761391b613899565b5b600061392a878288016138c1565b945050602061393b878288016138ed565b935050604061394c878288016138ed565b925050606061395d878288016138ed565b91505092959194509250565b600080600080600060a0868803121561398557613984613899565b5b6000613993888289016138ed565b95505060206139a4888289016138ed565b94505060406139b5888289016138ed565b93505060606139c6888289016138ed565b92505060806139d7888289016138ed565b9150509295509295909350565b600081519050919050565b600082825260208201905092915050565b60005b83811015613a1e578082015181840152602081019050613a03565b60008484015250505050565b6000601f19601f8301169050919050565b6000613a46826139e4565b613a5081856139ef565b9350613a60818560208601613a00565b613a6981613a2a565b840191505092915050565b60006020820190508181036000830152613a8e8184613a3b565b905092915050565b600073ffffffffffffffffffffffffffffffffffffffff82169050919050565b6000613ac182613a96565b9050919050565b613ad181613ab6565b8114613adc57600080fd5b50565b600081359050613aee81613ac8565b92915050565b60008060408385031215613b0b57613b0a613899565b5b6000613b1985828601613adf565b9250506020613b2a858286016138ed565b9150509250929050565b613b3d8161389e565b82525050565b6000602082019050613b586000830184613b34565b92915050565b60008060408385031215613b7557613b74613899565b5b6000613b83858286016138ed565b9250506020613b94858286016138ed565b9150509250929050565b600080600060608486031215613bb757613bb6613899565b5b6000613bc5868287016138ed565b9350506020613bd6868287016138ed565b9250506040613be7868287016138ed565b9150509250925092565b600080600060608486031215613c0a57613c09613899565b5b6000613c1886828701613adf565b9350506020613c2986828701613adf565b9250506040613c3a868287016138ed565b9150509250925092565b600060208284031215613c5a57613c59613899565b5b6000613c6884828501613adf565b91505092915050565b600060ff82169050919050565b613c8781613c71565b82525050565b6000602082019050613ca26000830184613c7e565b92915050565b600060208284031215613cbe57613cbd613899565b5b6000613ccc848285016138ed565b91505092915050565b60008060408385031215613cec57613ceb613899565b5b6000613cfa85828601613adf565b9250506020613d0b858286016138c1565b9150509250929050565b613d1e81613ab6565b82525050565b6000602082019050613d396000830184613d15565b92915050565b60008060408385031215613d5657613d55613899565b5b6000613d6485828601613adf565b9250506020613d7585828601613adf565b9150509250929050565b60008060408385031215613d9657613d95613899565b5b6000613da4858286016138c1565b9250506020613db5858286016138ed565b9150509250929050565b600060208284031215613dd557613dd4613899565b5b6000613de3848285016138c1565b91505092915050565b6000613df782613a96565b9050919050565b613e0781613dec565b8114613e1257600080fd5b50565b600081359050613e2481613dfe565b92915050565b600060208284031215613e4057613e3f613899565b5b6000613e4e84828501613e15565b91505092915050565b60008060408385031215613e6e57613e6d613899565b5b6000613e7c858286016138ed565b9250506020613e8d858286016138c1565b9150509250929050565b6000819050919050565b6000613ebc613eb7613eb284613a96565b613e97565b613a96565b9050919050565b6000613ece82613ea1565b9050919050565b6000613ee082613ec3565b9050919050565b613ef081613ed5565b82525050565b6000602082019050613f0b6000830184613ee7565b92915050565b7f21415554484f52495a4544000000000000000000000000000000000000000000600082015250565b6000613f47600b836139ef565b9150613f5282613f11565b602082019050919050565b60006020820190508181036000830152613f7681613f3a565b9050919050565b7f4e487b7100000000000000000000000000000000000000000000000000000000600052601260045260246000fd5b7f4e487b7100000000000000000000000000000000000000000000000000000000600052601160045260246000fd5b6000613fe682613865565b9150613ff183613865565b92508261400157614000613f7d565b5b828204905092915050565b6000604082019050614021600083018561386f565b61402e602083018461386f565b9392505050565b7f214f574e45520000000000000000000000000000000000000000000000000000600082015250565b600061406b6006836139ef565b915061407682614035565b602082019050919050565b6000602082019050818103600083015261409a8161405e565b9050919050565b7f4e6f7420656e6f7567682062616c616e63650000000000000000000000000000600082015250565b60006140d76012836139ef565b91506140e2826140a1565b602082019050919050565b60006020820190508181036000830152614106816140ca565b9050919050565b600081905092915050565b50565b600061412860008361410d565b915061413382614118565b600082019050919050565b60006141498261411b565b9150819050919050565b7f5769746864726177206572726f72000000000000000000000000000000000000600082015250565b6000614189600e836139ef565b915061419482614153565b602082019050919050565b600060208201905081810360008301526141b88161417c565b9050919050565b7f416c7265616479206c61756e6368656420626f69000000000000000000000000600082015250565b60006141f56014836139ef565b9150614200826141bf565b602082019050919050565b60006020820190508181036000830152614224816141e8565b9050919050565b7f686f6c6465722069732030000000000000000000000000000000000000000000600082015250565b6000614261600b836139ef565b915061426c8261422b565b602082019050919050565b6000602082019050818103600083015261429081614254565b9050919050565b60006142a282613865565b91506142ad83613865565b92508282019050808211156142c5576142c4613fac565b5b92915050565b60006142d682613ec3565b9050919050565b6142e6816142cb565b82525050565b600060208201905061430160008301846142dd565b92915050565b6000819050919050565b600061432c61432761432284614307565b613e97565b613865565b9050919050565b61433c81614311565b82525050565b60006040820190506143576000830185613d15565b6143646020830184614333565b9392505050565b60006040820190506143806000830185613d15565b61438d602083018461386f565b9392505050565b600061439f82613865565b91506143aa83613865565b92508282039050818111156143c2576143c1613fac565b5b92915050565b60006143d382613865565b91506143de83613865565b92508282026143ec81613865565b9150828204841483151761440357614402613fac565b5b5092915050565b7f4e487b7100000000000000000000000000000000000000000000000000000000600052604160045260246000fd5b7f4e487b7100000000000000000000000000000000000000000000000000000000600052603260045260246000fd5b600081519050919050565b600082825260208201905092915050565b6000819050602082019050919050565b61449d81613ab6565b82525050565b60006144af8383614494565b60208301905092915050565b6000602082019050919050565b60006144d382614468565b6144dd8185614473565b93506144e883614484565b8060005b8381101561451957815161450088826144a3565b975061450b836144bb565b9250506001810190506144ec565b5085935050505092915050565b600060808201905061453b6000830187614333565b818103602083015261454d81866144c8565b905061455c6040830185613d15565b614569606083018461386f565b95945050505050565b7f5458204c696d6974204578636565646564000000000000000000000000000000600082015250565b60006145a86011836139ef565b91506145b382614572565b602082019050919050565b600060208201905081810360008301526145d78161459b565b9050919050565b600060a0820190506145f3600083018861386f565b6146006020830187614333565b818103604083015261461281866144c8565b90506146216060830185613d15565b61462e608083018461386f565b9695505050505050565b600060c08201905061464d6000830189613d15565b61465a602083018861386f565b6146676040830187614333565b6146746060830186614333565b6146816080830185613d15565b61468e60a083018461386f565b979650505050505050565b6000815190506146a8816138d6565b92915050565b6000806000606084860312156146c7576146c6613899565b5b60006146d586828701614699565b93505060206146e686828701614699565b92505060406146f786828701614699565b915050925092509256fea26469706673582212207560517d96189799eb520501075e8033319aeb710fe588ac1badf7c73fceb68e64736f6c6343000812003360806040526ec097ce7bc90715b34b9f10000000006009556001600a556064600b5534801561002d57600080fd5b50336000806101000a81548173ffffffffffffffffffffffffffffffffffffffff021916908373ffffffffffffffffffffffffffffffffffffffff1602179055506114578061007d6000396000f3fe6080604052600436106100dd5760003560e01c8063ce7c2ac21161007f578063efca2eed11610059578063efca2eed14610291578063f0fc6bca146102bc578063ffb2c479146102d3578063ffd49c84146102fc576100dd565b8063ce7c2ac21461021d578063d0e30db01461025c578063e2d2e21914610266576100dd565b80632d48e896116100bb5780632d48e896146101735780633a98ef391461019c5780634fab0ae8146101c7578063997664d7146101f2576100dd565b806311ce023d146100e257806314b6ca961461010d57806328fd319814610136575b600080fd5b3480156100ee57600080fd5b506100f7610327565b6040516101049190611041565b60405180910390f35b34801561011957600080fd5b50610134600480360381019061012f91906110eb565b61032d565b005b34801561014257600080fd5b5061015d6004803603810190610158919061112b565b6105ec565b60405161016a9190611041565b60405180910390f35b34801561017f57600080fd5b5061019a60048036038101906101959190611158565b610705565b005b3480156101a857600080fd5b506101b161076f565b6040516101be9190611041565b60405180910390f35b3480156101d357600080fd5b506101dc610775565b6040516101e99190611041565b60405180910390f35b3480156101fe57600080fd5b5061020761077b565b6040516102149190611041565b60405180910390f35b34801561022957600080fd5b50610244600480360381019061023f919061112b565b610781565b60405161025393929190611198565b60405180910390f35b6102646107ab565b005b34801561027257600080fd5b5061027b610869565b6040516102889190611041565b60405180910390f35b34801561029d57600080fd5b506102a661086f565b6040516102b39190611041565b60405180910390f35b3480156102c857600080fd5b506102d1610875565b005b3480156102df57600080fd5b506102fa60048036038101906102f591906111cf565b610880565b005b34801561030857600080fd5b50610311610a13565b60405161031e9190611041565b60405180910390f35b60095481565b60008054906101000a900473ffffffffffffffffffffffffffffffffffffffff1673ffffffffffffffffffffffffffffffffffffffff163373ffffffffffffffffffffffffffffffffffffffff161461038557600080fd5b6000600460008473ffffffffffffffffffffffffffffffffffffffff1673ffffffffffffffffffffffffffffffffffffffff1681526020019081526020016000206000015411156103da576103d982610a19565b5b60008111801561042c57506000600460008473ffffffffffffffffffffffffffffffffffffffff1673ffffffffffffffffffffffffffffffffffffffff16815260200190815260200160002060000154145b1561043f5761043a82610c7f565b6104a1565b60008114801561049157506000600460008473ffffffffffffffffffffffffffffffffffffffff1673ffffffffffffffffffffffffffffffffffffffff16815260200190815260200160002060000154115b156104a05761049f82610d2e565b5b5b61050a816104fc600460008673ffffffffffffffffffffffffffffffffffffffff1673ffffffffffffffffffffffffffffffffffffffff16815260200190815260200160002060000154600554610f3190919063ffffffff16565b610f4790919063ffffffff16565b60058190555080600460008473ffffffffffffffffffffffffffffffffffffffff1673ffffffffffffffffffffffffffffffffffffffff168152602001908152602001600020600001819055506105a2600460008473ffffffffffffffffffffffffffffffffffffffff1673ffffffffffffffffffffffffffffffffffffffff16815260200190815260200160002060000154610f5d565b600460008473ffffffffffffffffffffffffffffffffffffffff1673ffffffffffffffffffffffffffffffffffffffff168152602001908152602001600020600101819055505050565b600080600460008473ffffffffffffffffffffffffffffffffffffffff1673ffffffffffffffffffffffffffffffffffffffff16815260200190815260200160002060000154036106405760009050610700565b600061068d600460008573ffffffffffffffffffffffffffffffffffffffff1673ffffffffffffffffffffffffffffffffffffffff16815260200190815260200160002060000154610f5d565b90506000600460008573ffffffffffffffffffffffffffffffffffffffff1673ffffffffffffffffffffffffffffffffffffffff1681526020019081526020016000206001015490508082116106e857600092505050610700565b6106fb8183610f3190919063ffffffff16565b925050505b919050565b60008054906101000a900473ffffffffffffffffffffffffffffffffffffffff1673ffffffffffffffffffffffffffffffffffffffff163373ffffffffffffffffffffffffffffffffffffffff161461075d57600080fd5b81600a8190555080600b819055505050565b60055481565b600b5481565b60065481565b60046020528060005260406000206000915090508060000154908060010154908060020154905083565b60008054906101000a900473ffffffffffffffffffffffffffffffffffffffff1673ffffffffffffffffffffffffffffffffffffffff163373ffffffffffffffffffffffffffffffffffffffff161461080357600080fd5b600034905061081d81600654610f4790919063ffffffff16565b60068190555061086061084f60055461084184600954610f8f90919063ffffffff16565b610fa590919063ffffffff16565b600854610f4790919063ffffffff16565b60088190555050565b60085481565b60075481565b61087e33610a19565b565b60008054906101000a900473ffffffffffffffffffffffffffffffffffffffff1673ffffffffffffffffffffffffffffffffffffffff163373ffffffffffffffffffffffffffffffffffffffff16146108d857600080fd5b60006001805490509050600081036108f05750610a10565b6000805a905060005b848310801561090757508381105b15610a0b5783600c541061091e576000600c819055505b6109676001600c5481548110610937576109366111fc565b5b9060005260206000200160009054906101000a900473ffffffffffffffffffffffffffffffffffffffff16610fbb565b156109b6576109b56001600c5481548110610985576109846111fc565b5b9060005260206000200160009054906101000a900473ffffffffffffffffffffffffffffffffffffffff16610a19565b5b6109db6109cc5a84610f3190919063ffffffff16565b84610f4790919063ffffffff16565b92505a9150600c60008154809291906109f39061125a565b91905055508080610a039061125a565b9150506108f9565b505050505b50565b600a5481565b6000600460008373ffffffffffffffffffffffffffffffffffffffff1673ffffffffffffffffffffffffffffffffffffffff168152602001908152602001600020600001540315610c7c576000610a6f826105ec565b90506000811115610c7a57610a8f81600754610f4790919063ffffffff16565b60078190555060008273ffffffffffffffffffffffffffffffffffffffff1682604051610abb906112d3565b60006040518083038185875af1925050503d8060008114610af8576040519150601f19603f3d011682016040523d82523d6000602084013e610afd565b606091505b505090508015610c785742600360008573ffffffffffffffffffffffffffffffffffffffff1673ffffffffffffffffffffffffffffffffffffffff16815260200190815260200160002081905550610ba082600460008673ffffffffffffffffffffffffffffffffffffffff1673ffffffffffffffffffffffffffffffffffffffff16815260200190815260200160002060020154610f4790919063ffffffff16565b600460008573ffffffffffffffffffffffffffffffffffffffff1673ffffffffffffffffffffffffffffffffffffffff16815260200190815260200160002060020181905550610c31600460008573ffffffffffffffffffffffffffffffffffffffff1673ffffffffffffffffffffffffffffffffffffffff16815260200190815260200160002060000154610f5d565b600460008573ffffffffffffffffffffffffffffffffffffffff1673ffffffffffffffffffffffffffffffffffffffff168152602001908152602001600020600101819055505b505b505b50565b600180549050600260008373ffffffffffffffffffffffffffffffffffffffff1673ffffffffffffffffffffffffffffffffffffffff168152602001908152602001600020819055506001819080600181540180825580915050600190039060005260206000200160009091909190916101000a81548173ffffffffffffffffffffffffffffffffffffffff021916908373ffffffffffffffffffffffffffffffffffffffff16021790555050565b6001808080549050610d4091906112e8565b81548110610d5157610d506111fc565b5b9060005260206000200160009054906101000a900473ffffffffffffffffffffffffffffffffffffffff166001600260008473ffffffffffffffffffffffffffffffffffffffff1673ffffffffffffffffffffffffffffffffffffffff1681526020019081526020016000205481548110610dcf57610dce6111fc565b5b9060005260206000200160006101000a81548173ffffffffffffffffffffffffffffffffffffffff021916908373ffffffffffffffffffffffffffffffffffffffff160217905550600260008273ffffffffffffffffffffffffffffffffffffffff1673ffffffffffffffffffffffffffffffffffffffff16815260200190815260200160002054600260006001808080549050610e6d91906112e8565b81548110610e7e57610e7d6111fc565b5b9060005260206000200160009054906101000a900473ffffffffffffffffffffffffffffffffffffffff1673ffffffffffffffffffffffffffffffffffffffff1673ffffffffffffffffffffffffffffffffffffffff168152602001908152602001600020819055506001805480610ef957610ef861131c565b5b6001900381819060005260206000200160006101000a81549073ffffffffffffffffffffffffffffffffffffffff0219169055905550565b60008183610f3f91906112e8565b905092915050565b60008183610f55919061134b565b905092915050565b6000610f88600954610f7a60085485610f8f90919063ffffffff16565b610fa590919063ffffffff16565b9050919050565b60008183610f9d919061137f565b905092915050565b60008183610fb391906113f0565b905092915050565b600042600a54600360008573ffffffffffffffffffffffffffffffffffffffff1673ffffffffffffffffffffffffffffffffffffffff1681526020019081526020016000205461100b919061134b565b1080156110215750600b5461101f836105ec565b115b9050919050565b6000819050919050565b61103b81611028565b82525050565b60006020820190506110566000830184611032565b92915050565b600080fd5b600073ffffffffffffffffffffffffffffffffffffffff82169050919050565b600061108c82611061565b9050919050565b61109c81611081565b81146110a757600080fd5b50565b6000813590506110b981611093565b92915050565b6110c881611028565b81146110d357600080fd5b50565b6000813590506110e5816110bf565b92915050565b600080604083850312156111025761110161105c565b5b6000611110858286016110aa565b9250506020611121858286016110d6565b9150509250929050565b6000602082840312156111415761114061105c565b5b600061114f848285016110aa565b91505092915050565b6000806040838503121561116f5761116e61105c565b5b600061117d858286016110d6565b925050602061118e858286016110d6565b9150509250929050565b60006060820190506111ad6000830186611032565b6111ba6020830185611032565b6111c76040830184611032565b949350505050565b6000602082840312156111e5576111e461105c565b5b60006111f3848285016110d6565b91505092915050565b7f4e487b7100000000000000000000000000000000000000000000000000000000600052603260045260246000fd5b7f4e487b7100000000000000000000000000000000000000000000000000000000600052601160045260246000fd5b600061126582611028565b91507fffffffffffffffffffffffffffffffffffffffffffffffffffffffffffffffff82036112975761129661122b565b5b600182019050919050565b600081905092915050565b50565b60006112bd6000836112a2565b91506112c8826112ad565b600082019050919050565b60006112de826112b0565b9150819050919050565b60006112f382611028565b91506112fe83611028565b92508282039050818111156113165761131561122b565b5b92915050565b7f4e487b7100000000000000000000000000000000000000000000000000000000600052603160045260246000fd5b600061135682611028565b915061136183611028565b92508282019050808211156113795761137861122b565b5b92915050565b600061138a82611028565b915061139583611028565b92508282026113a381611028565b915082820484148315176113ba576113b961122b565b5b5092915050565b7f4e487b7100000000000000000000000000000000000000000000000000000000600052601260045260246000fd5b60006113fb82611028565b915061140683611028565b925082611416576114156113c1565b5b82820490509291505056fea26469706673582212201b367d0c428a9576507e542fc6988af7c633db100f52c38eb99a46b708a2fb3264736f6c63430008120033",
  "linkReferences": {},
  "deployedLinkReferences": {}
}