{
  "_format": "hh-sol-artifact-1",
  "contractName": "DividendDistributor",
  "sourceName": "contracts/DividendDistributor.sol",
  "abi": [
    {
      "inputs": [],
      "stateMutability": "nonpayable",
      "type": "constructor"
    },
    {
      "inputs": [],
      "name": "claimDividend",
      "outputs": [],
      "stateMutability": "nonpayable",
      "type": "function"
    },
    {
      "inputs": [],
      "name": "deposit",
      "outputs": [],
      "stateMutability": "payable",
      "type": "function"
    },
    {
      "inputs": [],
      "name": "dividendsPerShare",
      "outputs": [
        {
          "internalType": "uint256",
          "name": "",
          "type": "uint256"
        }
      ],
      "stateMutability": "view",
      "type": "function"
    },
    {
      "inputs": [],
      "name": "dividendsPerShareAccuracyFactor",
      "outputs": [
        {
          "internalType": "uint256",
          "name": "",
          "type": "uint256"
        }
      ],
      "stateMutability": "view",
      "type": "function"
    },
    {
      "inputs": [
        {
          "internalType": "address",
          "name": "shareholder",
          "type": "address"
        }
      ],
      "name": "getUnpaidEarnings",
      "outputs": [
        {
          "internalType": "uint256",
          "name": "",
          "type": "uint256"
        }
      ],
      "stateMutability": "view",
      "type": "function"
    },
    {
      "inputs": [],
      "name": "minDistribution",
      "outputs": [
        {
          "internalType": "uint256",
          "name": "",
          "type": "uint256"
        }
      ],
      "stateMutability": "view",
      "type": "function"
    },
    {
      "inputs": [],
      "name": "minPeriod",
      "outputs": [
        {
          "internalType": "uint256",
          "name": "",
          "type": "uint256"
        }
      ],
      "stateMutability": "view",
      "type": "function"
    },
    {
      "inputs": [
        {
          "internalType": "uint256",
          "name": "gas",
          "type": "uint256"
        }
      ],
      "name": "process",
      "outputs": [],
      "stateMutability": "nonpayable",
      "type": "function"
    },
    {
      "inputs": [
        {
          "internalType": "uint256",
          "name": "_minPeriod",
          "type": "uint256"
        },
        {
          "internalType": "uint256",
          "name": "_minDistribution",
          "type": "uint256"
        }
      ],
      "name": "setDistributionCriteria",
      "outputs": [],
      "stateMutability": "nonpayable",
      "type": "function"
    },
    {
      "inputs": [
        {
          "internalType": "address",
          "name": "shareholder",
          "type": "address"
        },
        {
          "internalType": "uint256",
          "name": "amount",
          "type": "uint256"
        }
      ],
      "name": "setShare",
      "outputs": [],
      "stateMutability": "nonpayable",
      "type": "function"
    },
    {
      "inputs": [
        {
          "internalType": "address",
          "name": "",
          "type": "address"
        }
      ],
      "name": "shares",
      "outputs": [
        {
          "internalType": "uint256",
          "name": "amount",
          "type": "uint256"
        },
        {
          "internalType": "uint256",
          "name": "totalExcluded",
          "type": "uint256"
        },
        {
          "internalType": "uint256",
          "name": "totalRealised",
          "type": "uint256"
        }
      ],
      "stateMutability": "view",
      "type": "function"
    },
    {
      "inputs": [],
      "name": "totalDistributed",
      "outputs": [
        {
          "internalType": "uint256",
          "name": "",
          "type": "uint256"
        }
      ],
      "stateMutability": "view",
      "type": "function"
    },
    {
      "inputs": [],
      "name": "totalDividends",
      "outputs": [
        {
          "internalType": "uint256",
          "name": "",
          "type": "uint256"
        }
      ],
      "stateMutability": "view",
      "type": "function"
    },
    {
      "inputs": [],
      "name": "totalShares",
      "outputs": [
        {
          "internalType": "uint256",
          "name": "",
          "type": "uint256"
        }
      ],
      "stateMutability": "view",
      "type": "function"
    }
  ],
  "bytecode": "0x60806040526ec097ce7bc90715b34b9f10000000006009556001600a556064600b5534801561002d57600080fd5b50336000806101000a81548173ffffffffffffffffffffffffffffffffffffffff021916908373ffffffffffffffffffffffffffffffffffffffff1602179055506114578061007d6000396000f3fe6080604052600436106100dd5760003560e01c8063ce7c2ac21161007f578063efca2eed11610059578063efca2eed14610291578063f0fc6bca146102bc578063ffb2c479146102d3578063ffd49c84146102fc576100dd565b8063ce7c2ac21461021d578063d0e30db01461025c578063e2d2e21914610266576100dd565b80632d48e896116100bb5780632d48e896146101735780633a98ef391461019c5780634fab0ae8146101c7578063997664d7146101f2576100dd565b806311ce023d146100e257806314b6ca961461010d57806328fd319814610136575b600080fd5b3480156100ee57600080fd5b506100f7610327565b6040516101049190611041565b60405180910390f35b34801561011957600080fd5b50610134600480360381019061012f91906110eb565b61032d565b005b34801561014257600080fd5b5061015d6004803603810190610158919061112b565b6105ec565b60405161016a9190611041565b60405180910390f35b34801561017f57600080fd5b5061019a60048036038101906101959190611158565b610705565b005b3480156101a857600080fd5b506101b161076f565b6040516101be9190611041565b60405180910390f35b3480156101d357600080fd5b506101dc610775565b6040516101e99190611041565b60405180910390f35b3480156101fe57600080fd5b5061020761077b565b6040516102149190611041565b60405180910390f35b34801561022957600080fd5b50610244600480360381019061023f919061112b565b610781565b60405161025393929190611198565b60405180910390f35b6102646107ab565b005b34801561027257600080fd5b5061027b610869565b6040516102889190611041565b60405180910390f35b34801561029d57600080fd5b506102a661086f565b6040516102b39190611041565b60405180910390f35b3480156102c857600080fd5b506102d1610875565b005b3480156102df57600080fd5b506102fa60048036038101906102f591906111cf565b610880565b005b34801561030857600080fd5b50610311610a13565b60405161031e9190611041565b60405180910390f35b60095481565b60008054906101000a900473ffffffffffffffffffffffffffffffffffffffff1673ffffffffffffffffffffffffffffffffffffffff163373ffffffffffffffffffffffffffffffffffffffff161461038557600080fd5b6000600460008473ffffffffffffffffffffffffffffffffffffffff1673ffffffffffffffffffffffffffffffffffffffff1681526020019081526020016000206000015411156103da576103d982610a19565b5b60008111801561042c57506000600460008473ffffffffffffffffffffffffffffffffffffffff1673ffffffffffffffffffffffffffffffffffffffff16815260200190815260200160002060000154145b1561043f5761043a82610c7f565b6104a1565b60008114801561049157506000600460008473ffffffffffffffffffffffffffffffffffffffff1673ffffffffffffffffffffffffffffffffffffffff16815260200190815260200160002060000154115b156104a05761049f82610d2e565b5b5b61050a816104fc600460008673ffffffffffffffffffffffffffffffffffffffff1673ffffffffffffffffffffffffffffffffffffffff16815260200190815260200160002060000154600554610f3190919063ffffffff16565b610f4790919063ffffffff16565b60058190555080600460008473ffffffffffffffffffffffffffffffffffffffff1673ffffffffffffffffffffffffffffffffffffffff168152602001908152602001600020600001819055506105a2600460008473ffffffffffffffffffffffffffffffffffffffff1673ffffffffffffffffffffffffffffffffffffffff16815260200190815260200160002060000154610f5d565b600460008473ffffffffffffffffffffffffffffffffffffffff1673ffffffffffffffffffffffffffffffffffffffff168152602001908152602001600020600101819055505050565b600080600460008473ffffffffffffffffffffffffffffffffffffffff1673ffffffffffffffffffffffffffffffffffffffff16815260200190815260200160002060000154036106405760009050610700565b600061068d600460008573ffffffffffffffffffffffffffffffffffffffff1673ffffffffffffffffffffffffffffffffffffffff16815260200190815260200160002060000154610f5d565b90506000600460008573ffffffffffffffffffffffffffffffffffffffff1673ffffffffffffffffffffffffffffffffffffffff1681526020019081526020016000206001015490508082116106e857600092505050610700565b6106fb8183610f3190919063ffffffff16565b925050505b919050565b60008054906101000a900473ffffffffffffffffffffffffffffffffffffffff1673ffffffffffffffffffffffffffffffffffffffff163373ffffffffffffffffffffffffffffffffffffffff161461075d57600080fd5b81600a8190555080600b819055505050565b60055481565b600b5481565b60065481565b60046020528060005260406000206000915090508060000154908060010154908060020154905083565b60008054906101000a900473ffffffffffffffffffffffffffffffffffffffff1673ffffffffffffffffffffffffffffffffffffffff163373ffffffffffffffffffffffffffffffffffffffff161461080357600080fd5b600034905061081d81600654610f4790919063ffffffff16565b60068190555061086061084f60055461084184600954610f8f90919063ffffffff16565b610fa590919063ffffffff16565b600854610f4790919063ffffffff16565b60088190555050565b60085481565b60075481565b61087e33610a19565b565b60008054906101000a900473ffffffffffffffffffffffffffffffffffffffff1673ffffffffffffffffffffffffffffffffffffffff163373ffffffffffffffffffffffffffffffffffffffff16146108d857600080fd5b60006001805490509050600081036108f05750610a10565b6000805a905060005b848310801561090757508381105b15610a0b5783600c541061091e576000600c819055505b6109676001600c5481548110610937576109366111fc565b5b9060005260206000200160009054906101000a900473ffffffffffffffffffffffffffffffffffffffff16610fbb565b156109b6576109b56001600c5481548110610985576109846111fc565b5b9060005260206000200160009054906101000a900473ffffffffffffffffffffffffffffffffffffffff16610a19565b5b6109db6109cc5a84610f3190919063ffffffff16565b84610f4790919063ffffffff16565b92505a9150600c60008154809291906109f39061125a565b91905055508080610a039061125a565b9150506108f9565b505050505b50565b600a5481565b6000600460008373ffffffffffffffffffffffffffffffffffffffff1673ffffffffffffffffffffffffffffffffffffffff168152602001908152602001600020600001540315610c7c576000610a6f826105ec565b90506000811115610c7a57610a8f81600754610f4790919063ffffffff16565b60078190555060008273ffffffffffffffffffffffffffffffffffffffff1682604051610abb906112d3565b60006040518083038185875af1925050503d8060008114610af8576040519150601f19603f3d011682016040523d82523d6000602084013e610afd565b606091505b505090508015610c785742600360008573ffffffffffffffffffffffffffffffffffffffff1673ffffffffffffffffffffffffffffffffffffffff16815260200190815260200160002081905550610ba082600460008673ffffffffffffffffffffffffffffffffffffffff1673ffffffffffffffffffffffffffffffffffffffff16815260200190815260200160002060020154610f4790919063ffffffff16565b600460008573ffffffffffffffffffffffffffffffffffffffff1673ffffffffffffffffffffffffffffffffffffffff16815260200190815260200160002060020181905550610c31600460008573ffffffffffffffffffffffffffffffffffffffff1673ffffffffffffffffffffffffffffffffffffffff16815260200190815260200160002060000154610f5d565b600460008573ffffffffffffffffffffffffffffffffffffffff1673ffffffffffffffffffffffffffffffffffffffff168152602001908152602001600020600101819055505b505b505b50565b600180549050600260008373ffffffffffffffffffffffffffffffffffffffff1673ffffffffffffffffffffffffffffffffffffffff168152602001908152602001600020819055506001819080600181540180825580915050600190039060005260206000200160009091909190916101000a81548173ffffffffffffffffffffffffffffffffffffffff021916908373ffffffffffffffffffffffffffffffffffffffff16021790555050565b6001808080549050610d4091906112e8565b81548110610d5157610d506111fc565b5b9060005260206000200160009054906101000a900473ffffffffffffffffffffffffffffffffffffffff166001600260008473ffffffffffffffffffffffffffffffffffffffff1673ffffffffffffffffffffffffffffffffffffffff1681526020019081526020016000205481548110610dcf57610dce6111fc565b5b9060005260206000200160006101000a81548173ffffffffffffffffffffffffffffffffffffffff021916908373ffffffffffffffffffffffffffffffffffffffff160217905550600260008273ffffffffffffffffffffffffffffffffffffffff1673ffffffffffffffffffffffffffffffffffffffff16815260200190815260200160002054600260006001808080549050610e6d91906112e8565b81548110610e7e57610e7d6111fc565b5b9060005260206000200160009054906101000a900473ffffffffffffffffffffffffffffffffffffffff1673ffffffffffffffffffffffffffffffffffffffff1673ffffffffffffffffffffffffffffffffffffffff168152602001908152602001600020819055506001805480610ef957610ef861131c565b5b6001900381819060005260206000200160006101000a81549073ffffffffffffffffffffffffffffffffffffffff0219169055905550565b60008183610f3f91906112e8565b905092915050565b60008183610f55919061134b565b905092915050565b6000610f88600954610f7a60085485610f8f90919063ffffffff16565b610fa590919063ffffffff16565b9050919050565b60008183610f9d919061137f565b905092915050565b60008183610fb391906113f0565b905092915050565b600042600a54600360008573ffffffffffffffffffffffffffffffffffffffff1673ffffffffffffffffffffffffffffffffffffffff1681526020019081526020016000205461100b919061134b565b1080156110215750600b5461101f836105ec565b115b9050919050565b6000819050919050565b61103b81611028565b82525050565b60006020820190506110566000830184611032565b92915050565b600080fd5b600073ffffffffffffffffffffffffffffffffffffffff82169050919050565b600061108c82611061565b9050919050565b61109c81611081565b81146110a757600080fd5b50565b6000813590506110b981611093565b92915050565b6110c881611028565b81146110d357600080fd5b50565b6000813590506110e5816110bf565b92915050565b600080604083850312156111025761110161105c565b5b6000611110858286016110aa565b9250506020611121858286016110d6565b9150509250929050565b6000602082840312156111415761114061105c565b5b600061114f848285016110aa565b91505092915050565b6000806040838503121561116f5761116e61105c565b5b600061117d858286016110d6565b925050602061118e858286016110d6565b9150509250929050565b60006060820190506111ad6000830186611032565b6111ba6020830185611032565b6111c76040830184611032565b949350505050565b6000602082840312156111e5576111e461105c565b5b60006111f3848285016110d6565b91505092915050565b7f4e487b7100000000000000000000000000000000000000000000000000000000600052603260045260246000fd5b7f4e487b7100000000000000000000000000000000000000000000000000000000600052601160045260246000fd5b600061126582611028565b91507fffffffffffffffffffffffffffffffffffffffffffffffffffffffffffffffff82036112975761129661122b565b5b600182019050919050565b600081905092915050565b50565b60006112bd6000836112a2565b91506112c8826112ad565b600082019050919050565b60006112de826112b0565b9150819050919050565b60006112f382611028565b91506112fe83611028565b92508282039050818111156113165761131561122b565b5b92915050565b7f4e487b7100000000000000000000000000000000000000000000000000000000600052603160045260246000fd5b600061135682611028565b915061136183611028565b92508282019050808211156113795761137861122b565b5b92915050565b600061138a82611028565b915061139583611028565b92508282026113a381611028565b915082820484148315176113ba576113b961122b565b5b5092915050565b7f4e487b7100000000000000000000000000000000000000000000000000000000600052601260045260246000fd5b60006113fb82611028565b915061140683611028565b925082611416576114156113c1565b5b82820490509291505056fea26469706673582212201b367d0c428a9576507e542fc6988af7c633db100f52c38eb99a46b708a2fb3264736f6c63430008120033",
  "linkReferences": {},
  "deployedLinkReferences": {}
}